:020000040800F2
:100000000050002081160008A5140008AB14000859
:10001000B1140008B7140008BD1400080000000067
:10002000000000000000000000000000C3140008F1
:10003000CF14000800000000DB140008E7140008DB
:10004000C9160008C9160008C9160008C916000814
:10005000C9160008C9160008C9160008C916000804
:10006000C9160008C9160008C9160008C9160008F4
:10007000C9160008C9160008C9160008C9160008E4
:10008000C9160008C9160008C9160008C9160008D4
:10009000C9160008C9160008C9160008C9160008C4
:1000A000C9160008C9160008C9160008C9160008B4
:1000B000C9160008C9160008C9160008C9160008A4
:1000C000C9160008C9160008C9160008C916000894
:1000D000C9160008C9160008C9160008C916000884
:1000E000C9160008C9160008C9160008000000005B
:1000F0000000000000000000000000000000000000
:0C01000000000000000000005FF808F1A3
:1001100010B5054C237833B9044B13B10448AFF341
:1001200000800123237010BDF001002000000000BA
:1001300074B1000808B5034B1BB103490348AFF382
:10014000008008BD00000000F401002074B1000828
:10015000034613F8012B002AFBD1181A0138704707
:1001600081F0004102E000BF83F0004330B54FEA68
:1001700041044FEA430594EA050F08BF90EA020FD5
:100180001FBF54EA000C55EA020C7FEA645C7FEA68
:10019000655C00F0E2804FEA5454D4EB5555B8BF8B
:1001A0006D420CDD2C4480EA020281EA030382EAFC
:1001B000000083EA010180EA020281EA0303362D8E
:1001C00088BF30BD11F0004F4FEA01314FF4801C61
:1001D0004CEA113102D0404261EB410113F0004F73
:1001E0004FEA03334CEA133302D0524263EB43032A
:1001F00094EA050F00F0A780A4F10104D5F1200EC8
:100200000DDB02FA0EFC22FA05F2801841F1000122
:1002100003FA0EF2801843FA05F359410EE0A5F1F6
:1002200020050EF1200E012A03FA0EFC28BF4CF027
:10023000020C43FA05F3C01851EBE37101F00045DD
:1002400007D54FF0000EDCF1000C7EEB00006EEBEA
:100250000101B1F5801F1BD3B1F5001F0CD3490874
:100260005FEA30004FEA3C0C04F101044FEA4452CB
:1002700012F5800F80F09A80BCF1004F08BF5FEA52
:10028000500C50F1000041EB045141EA050130BD32
:100290005FEA4C0C404141EB0101013C28BFB1F544
:1002A000801FE9D291F0000F04BF01460020B1FA8F
:1002B00081F308BF2033A3F10B03B3F120020CDA62
:1002C0000C3208DD02F1140CC2F10C0201FA0CF040
:1002D00021FA02F10CE002F11402D8BFC2F1200CA5
:1002E00001FA02F120FA0CFCDCBF41EA0C0190405B
:1002F000E41AA2BF01EB0451294330BD6FEA0404A4
:100300001F3C1CDA0C340EDC04F11404C4F120028E
:1003100020FA04F001FA02F340EA030021FA04F3A0
:1003200045EA030130BDC4F10C04C4F1200220FAF7
:1003300002F001FA04F340EA0300294630BD21FA35
:1003400004F0294630BD94F0000F83F4801306BFFB
:1003500081F480110134013D4EE77FEA645C18BFEF
:100360007FEA655C29D094EA050F08BF90EA020F86
:1003700005D054EA000C04BF1946104630BD91EA7E
:10038000030F1EBF0021002030BD5FEA545C05D181
:100390004000494128BF41F0004130BD14F58004C0
:1003A0003CBF01F5801130BD01F0004545F0FE4134
:1003B00041F470014FF0000030BD7FEA645C1ABF69
:1003C000194610467FEA655C1CBF0B46024650EAA0
:1003D000013406BF52EA033591EA030F41F40021CC
:1003E00030BD00BF90F0000F04BF0021704730B552
:1003F0004FF4806404F132044FF000054FF0000127
:1004000050E700BF90F0000F04BF0021704730B5E7
:100410004FF4806404F1320410F0004548BF4042BC
:100420004FF000013EE700BF42004FEAE2014FEA11
:1004300031014FEA02701FBF12F07F4393F07F4FEC
:1004400081F06051704732F07F4208BF704793F0EF
:100450007F4F04BF41F40021704730B54FF4607402
:1004600001F0004521F000411CE700BF50EA010205
:1004700008BF704730B54FF000050AE050EA0102AE
:1004800008BF704730B511F0004502D5404261EB1E
:1004900041014FF4806404F132045FEA915C3FF45F
:1004A000D8AE4FF003025FEADC0C18BF03325FEAFC
:1004B000DC0C18BF033202EBDC02C2F1200300FAAD
:1004C00003FC20FA02F001FA03FE40EA0E0021FAD2
:1004D00002F11444BDE600BF70B54FF0FF0C4CF4C0
:1004E000E06C1CEA11541DBF1CEA135594EA0C0F72
:1004F00095EA0C0F00F0DEF82C4481EA030621EAAD
:100500004C5123EA4C5350EA013518BF52EA0335E7
:1005100041F4801143F4801338D0A0FB02CE4FF099
:100520000005E1FB02E506F00042E0FB03E54FF0C9
:100530000006E1FB03569CF0000F18BF4EF0010EC1
:10054000A4F1FF04B6F5007F64F5407404D25FEABD
:100550004E0E6D4146EB060642EAC62141EA555170
:100560004FEAC52040EA5E504FEACE2EB4F1FD0CB2
:1005700088BFBCF5E06F1ED8BEF1004F08BF5FEA30
:10058000500E50F1000041EB045170BD06F00046E2
:1005900046EA010140EA020081EA0301B4EB5C048F
:1005A000C2BFD4EB0C0541EA045170BD41F4801187
:1005B0004FF0000E013C00F3AB8014F1360FDEBFAC
:1005C000002001F0004170BDC4F10004203C35DA88
:1005D0000C341BDC04F11404C4F1200500FA05F30B
:1005E00020FA04F001FA05F240EA020001F00042AC
:1005F00021F0004110EBD37021FA04F642EB060122
:100600005EEA430E08BF20EAD37070BDC4F10C044B
:10061000C4F1200500FA04F320FA05F001FA04F20F
:1006200040EA020001F0004110EBD37041F10001FB
:100630005EEA430E08BF20EAD37070BDC4F1200506
:1006400000FA05F24EEA020E20FA04F301FA05F26E
:1006500043EA020321FA04F001F0004121FA04F216
:1006600020EA020000EBD3705EEA430E08BF20EAE6
:10067000D37070BD94F0000F0FD101F00046400020
:1006800041EB010111F4801F08BF013CF7D041EAA2
:10069000060195F0000F18BF704703F000465200A6
:1006A00043EB030313F4801F08BF013DF7D043EA77
:1006B0000603704794EA0C0F0CEA135518BF95EA2D
:1006C0000C0F0CD050EA410618BF52EA4306D1D1B4
:1006D00081EA030101F000414FF0000070BD50EAD3
:1006E000410606BF1046194652EA430619D094EA5D
:1006F0000C0F02D150EA013613D195EA0C0F05D147
:1007000052EA03361CBF104619460AD181EA03019A
:1007100001F0004141F0FE4141F470014FF0000052
:1007200070BD41F0FE4141F4780170BD70B54FF0ED
:10073000FF0C4CF4E06C1CEA11541DBF1CEA13556D
:1007400094EA0C0F95EA0C0F00F0A7F8A4EB05044F
:1007500081EA030E52EA03354FEA013100F0888046
:100760004FEA03334FF0805545EA131343EA12630F
:100770004FEA022245EA111545EA10654FEA0026C4
:100780000EF000419D4208BF964244F1FD0404F57D
:10079000407402D25B084FEA3202B61A65EB0305D9
:1007A0005B084FEA32024FF480104FF4002CB6EB96
:1007B000020E75EB030E22BFB61A754640EA0C0016
:1007C0005B084FEA3202B6EB020E75EB030E22BF56
:1007D000B61A754640EA5C005B084FEA3202B6EB97
:1007E000020E75EB030E22BFB61A754640EA9C0056
:1007F0005B084FEA3202B6EB020E75EB030E22BF26
:10080000B61A754640EADC0055EA060E18D04FEAE3
:10081000051545EA16754FEA06164FEAC30343EA83
:1008200052734FEAC2025FEA1C1CC0D111F4801F50
:100830000BD141EA00014FF000004FF0004CB6E749
:1008400011F4801F04BF01430020B4F1FD0C88BFE8
:10085000BCF5E06F3FF6AFAEB5EB030C04BFB6EBF3
:10086000020C5FEA500C50F1000041EB045170BDE6
:100870000EF0004E4EEA113114EB5C04C2BFD4EB13
:100880000C0541EA045170BD41F480114FF0000E97
:10089000013C90E645EA060E8DE60CEA135594EA13
:1008A0000C0F08BF95EA0C0F3FF43BAF94EA0C0F16
:1008B0000AD150EA01347FF434AF95EA0C0F7FF48B
:1008C00025AF104619462CE795EA0C0F06D152EADF
:1008D00003353FF4FDAE1046194622E750EA4106C3
:1008E00018BF52EA43067FF4C5AE50EA41047FF4D4
:1008F0000DAF52EA43057FF4EBAE12E74FF0FF3C39
:1009000006E000BF4FF0010C02E000BF4FF0010C09
:100910004DF804CD4FEA410C7FEA6C5C4FEA430C82
:1009200018BF7FEA6C5C1BD001B050EA410C0CBFD1
:1009300052EA430C91EA030F02BF90EA020F002033
:10094000704710F1000F91EA030F58BF994208BF9A
:1009500090422CBFD8176FEAE37040F00100704757
:100960004FEA410C7FEA6C5C02D150EA013C07D1AE
:100970004FEA430C7FEA6C5CD6D152EA033CD3D0F9
:100980005DF8040B704700BF8446104662468C46F3
:100990001946634600E000BF01B5FFF7B7FF002826
:1009A00048BF10F1000F01BD4DF808EDFFF7F4FF4F
:1009B0000CBF012000205DF808FB00BF4DF808EDDA
:1009C000FFF7EAFF34BF012000205DF808FB00BFFD
:1009D0004DF808EDFFF7E0FF94BF012000205DF81F
:1009E00008FB00BF4DF808EDFFF7CEFF94BF0120D4
:1009F00000205DF808FB00BF4DF808EDFFF7C4FFCD
:100A000034BF012000205DF808FB00BF4FEA410C15
:100A10007FEA6C5C02D150EA013C0AD14FEA430CF8
:100A20007FEA6C5C02D152EA033C02D14FF0000035
:100A300070474FF0010070474FEA410212F5001273
:100A400015D211D56FF47873B3EB625212D94FEA15
:100A5000C12343F0004343EA505311F0004F23FAFF
:100A600002F018BF404270474FF00000704750EA54
:100A7000013005D111F0004008BF6FF00040704711
:100A80004FF00000704700BF4FEA4102B2F1E0436F
:100A900024BFB3F5001CDCF1FE5C0DD901F0004C65
:100AA0004FEAC0024CEA5070B2F1004F40EB8300B5
:100AB00008BF20F00100704711F0804F21D113F1E1
:100AC0003872BCBF01F00040704741F480114FEA1A
:100AD0005252C2F11802C2F1200C10FA0CF320FAA3
:100AE00002F018BF40F001004FEAC1234FEAD323C0
:100AF00003FA0CFC40EA0C0023FA02F34FEA43032A
:100B0000CCE77FEA625307D150EA01331EBF4FF0B2
:100B1000FE4040F44000704701F0004040F0FE40CD
:100B200040F40000704700BF80B483B000AF78602D
:100B300039607B683A681A607B684FF000025A603F
:100B400000BF0C37BD4680BC7047000000000000AD
:100B5000B0B582B000AF78607B681B68184600F0C3
:100B600013FF7B681B686421184600F0BBFF7B689D
:100B70001B68184601F0BCF803461846FFF732FC24
:100B800002460B465049C1E900234F4BD3E90023ED
:100B900041A1D1E90001FFF7C9FD02460B4610460D
:100BA00019464FF00002494BFFF7DEFA02460B46AA
:100BB000104619463AA3D3E90023FFF78DFC0246FD
:100BC0000B464349C1E90023414BD3E900231046BA
:100BD00019460AF0E3F802460B463E49C1E90023F4
:100BE0003C4BD3E9000130A3D3E90023FFF774FCA9
:100BF00002460B46104619462DA3D3E90023FFF702
:100C0000B5FA02460B4614461D46324BD3E90001A5
:100C100029A3D3E90023FFF75FFC02460B461046E9
:100C200019462C4BD3E90023FFF756FC02460B462E
:100C300010461946274BD3E90023FFF74DFC024627
:100C40000B4620462946FFF791FA02460B464FF025
:100C500000001E49FFF76AFD02460B461E49C1E926
:100C600000231D4BD3E9000115A3D3E90023FFF7AF
:100C70007BFA02460B461849C1E90023164BD3E91B
:100C8000002310461946FFF7FFFE02467B685A60B4
:100C900000BF0837BD46B0BD0000000000FEAF40F9
:100CA000000000000088C3408447178D9FC32E3F7B
:100CB000E15ABA2EE36F523FE722E16EB7FE763E6D
:100CC0006666666666127140280200200000F03FEA
:100CD0001002002018020020200200200FB480B56E
:100CE00082B000AF07F114033B603B683A694FF4F0
:100CF00080710B4807F046FF0948FFF729FA0346C1
:100D00007B607B689AB24FF0FF330549054803F0DA
:100D100045FC00BF0837BD46BDE8804004B07047C1
:100D20005C030020D40200202DE9F043ADF2BC4D5D
:100D300006AF00F0CBFC00F0E1F85F495F48FFF739
:100D4000F3FE00F033FA00F02FF900F005FA00F09E
:100D5000CDF903F0A3FD00F065F94FF47A7000F0CF
:100D600017FD07F51B7301225549184606F066F971
:100D7000034687F89F3497F89F34002B06D097F8E6
:100D80009F3419464F48FFF7A9FFFEE74E48FFF78B
:100D9000A5FF00224D494E4802F076FA00224D4947
:100DA0004B4802F0FFFB4548FFF7D2FE434B5B6820
:100DB000494A1360474B9B789846464B5B78994667
:100DC000444BDB781C46414B1B781D463F4B5B7800
:100DD0001E463E4B9B787B603F4B1B681846FFF7D7
:100DE00023FB02460B46CDE904237B68039302965E
:100DF000019500944B4642463849394807F034FE85
:100E000007F1400312223749184606F05FF90346FE
:100E100087F89F3407F59463A3F58C63D3F80C220D
:100E200007F140031146184606F058FE97F89F3424
:100E3000002B03D12C48FFF751FF05E097F89F34B2
:100E400019462A48FFF74AFF07F10C033C222449C0
:100E5000184607F0ADFE07F1080307F10C0107F192
:100E600040003C2206F0ABFB034687F89F3497F81E
:100E70009F34002B09D107F59463A3F593631B6896
:100E800019461B48FFF72AFF05E097F89F341946DB
:100E90001848FFF723FF07F14003184606F0F6FD58
:100EA0004FF47A7332220E49134803F077FB642023
:100EB00000F06EFC6DE700BF380200201C0300202C
:100EC00090B1000894B10008ACB1000830020020D5
:100ED000680200203402002058030020C4B100083A
:100EE00024030020ECB10008F8B100080CB200089F
:100EF00024B2000848B20008D402002080B594B0A3
:100F000000AF07F1280328220021184607F048FE09
:100F100007F1140300221A605A609A60DA601A61BD
:100F20003B1D00221A605A609A60DA600A23BB6295
:100F30000123BB631023FB6301233B6400237B6419
:100F400007F12803184601F0FFFA0346002B01D0F1
:100F500000F08AF90F237B610023BB610023FB6152
:100F600000233B6200237B6207F114030021184633
:100F700001F06CFD0346002B01D000F075F903234E
:100F80007B604FF40073BB600023FB603B1D184681
:100F900001F0EAFE0346002B01D000F065F900BF26
:100FA0005037BD4680BD000080B584B000AF3B1D0A
:100FB00000221A605A609A60184B194A1A60174B3F
:100FC00000229A60154B00221A73144B00221A75E6
:100FD000124B4FF46022DA61104B00225A600F4B23
:100FE00001221A610D4800F0F7FB0346002B01D0E7
:100FF00000F03AF901237B600123BB600023FB6012
:101000003B1D1946054800F07FFE0346002B01D02A
:1010100000F02AF900BF1037BD4680BD380200201D
:101020000024014080B584B000AF07F10C0300211B
:101030000A461A800A469A700023BB603B4600228B
:101040001A605A60274B284A1A60264B4FF0FF322D
:101050005A60244B4FF480729A60224801F0F0FFEE
:101060000346002B01D000F0FFF804233B73272335
:101070007B730023BB7307F10C0301221946194847
:1010800002F06AF80346002B01D000F0EDF80623C9
:101090003B7209237B720923BB722323FB7207F186
:1010A0000803012219460F4802F0C6F90346002B37
:1010B00001D000F0D9F800233B7000237B7000239F
:1010C000BB7000237B603B4601221946054802F0B5
:1010D000BDFA0346002B01D000F0C6F800BF103760
:1010E000BD4680BD680200200028004080B500AFEA
:1010F000174B184A1A60164B4FF482725A60144B01
:1011000000229A60124B0022DA60114B00221A6111
:101110000F4B00225A610E4B4FF400729A610C4B38
:101120003822DA610A4B00221A62094B00225A6205
:10113000074B00229A62064B0A22DA62044802F048
:10114000BFFD0346002B01D000F08EF800BF80BD2C
:101150007C0200200030014080B500AF114B124AE4
:101160001A60104B4FF4E1325A600E4B00229A6025
:101170000C4B0022DA600B4B00221A61094B0C2247
:101180005A61084B00229A61064B0022DA61054839
:1011900003F0B4F90346002B01D000F065F800BF5E
:1011A00080BD00BFD40200200038014080B588B067
:1011B00000AF07F1100300221A605A609A60DA60EB
:1011C000264B9B69254A43F010039361234B9B698F
:1011D00003F01003FB60FB68204B9B691F4A43F040
:1011E000040393611D4B9B6903F00403BB60BB6860
:1011F0001A4B9B69194A43F008039361174B9B698B
:1012000003F008037B607B6800220821144801F08A
:1012100077F900220121134801F072F908233B619C
:1012200001237B610023BB610223FB6107F11003F3
:1012300019460B4800F0E0FF01233B6101237B616D
:101240000023BB610223FB6107F110031946054827
:1012500000F0D2FF00BF2037BD4680BD0010024025
:1012600000080140000C014080B400AF72B600BF1E
:10127000FEE7000080B483B000AF0E4B9B690D4ABF
:1012800043F0010393610B4B9B6903F001037B6007
:101290007B68084BDB69074A43F08053D361054BF9
:1012A000DB6903F080533B603B6800BF0C37BD46F1
:1012B00080BC70470010024080B588B000AF7860F5
:1012C00007F1100300221A605A609A60DA607B68A6
:1012D0001B68144A934221D1134B9B69124A43F471
:1012E00000739361104B9B6903F40073FB60FB6810
:1012F0000D4B9B690C4A43F0040393610A4B9B69B5
:1013000003F00403BB60BB6802233B6103237B61E2
:1013100007F110031946054800F06EFF00BF2037A3
:10132000BD4680BD0024014000100240000801407D
:1013300080B584B000AF78607B681B680B4A93422D
:1013400010D101F0F5F80A4BDB69094A43F000635C
:10135000D361074BDB6903F00063FB60FB68054B5F
:1013600001221A6000BF1037BD4680BD0028004032
:10137000001002403C04424280B588B000AF786063
:1013800007F1100300221A605A609A60DA607B68E5
:101390001B681B4A93422FD11A4B9B69194A43F48D
:1013A00080539361174B9B6903F48053FB60FB6888
:1013B000144B9B69134A43F004039361114B9B69DF
:1013C00003F00403BB60BB68A0233B6102237B6185
:1013D0000323FB6107F1100319460B4800F00CFFD3
:1013E00040233B6100237B610023BB6107F11003B5
:1013F0001946054800F000FF00BF2037BD4680BDFC
:1014000000300140001002400008014080B588B063
:1014100000AF786007F1100300221A605A609A60EA
:10142000DA607B681B681C4A934231D11B4B9B6975
:101430001A4A43F480439361184B9B6903F4804339
:10144000FB60FB68154B9B69144A43F004039361EE
:10145000124B9B6903F00403BB60BB684FF400733D
:101460003B6102237B610323FB6107F110031946F3
:101470000B4800F0C1FE4FF480633B6100237B61A9
:101480000023BB6107F110031946054800F0B4FEC4
:1014900000BF2037BD4680BD00380140001002402B
:1014A0000008014080B400AFFEE780B400AFFEE763
:1014B00080B400AFFEE780B400AFFEE780B400AFB9
:1014C000FEE780B400AF00BFBD4680BC704780B46B
:1014D00000AF00BFBD4680BC704780B400AF00BF06
:1014E000BD4680BC704780B500AF00F035F900BF45
:1014F00080BD80B400AF01231846BD4680BC704754
:1015000080B582B000AF7860396007F0AFFB03466A
:1015100016221A604FF0FF3318460837BD4680BDCB
:1015200080B582B000AF78604FF0FF317868FFF788
:10153000E7FFFEE780B586B000AFF860B9607A607B
:1015400000237B610AE0AFF300800146BB685A1CB0
:10155000BA60CAB21A707B6901337B617A697B68B1
:101560009A42F0DB7B6818461837BD4680BD80B5CF
:1015700086B000AFF860B9607A6000237B6109E053
:10158000BB685A1CBA601B781846AFF300807B69B1
:1015900001337B617A697B689A42F1DB7B6818468C
:1015A0001837BD4680BD80B483B000AF78604FF07F
:1015B000FF3318460C37BD4680BC704780B483B0FB
:1015C00000AF786039603B684FF400525A600023E6
:1015D00018460C37BD4680BC704780B483B000AF5E
:1015E0007860012318460C37BD4680BC704780B434
:1015F00085B000AFF860B9607A60002318461437F0
:10160000BD4680BC7047000080B586B000AF7860F2
:10161000144A154BD31A7B617B693B61134B1B68E2
:10162000002B02D1114B124A1A60104B1A687B68CA
:1016300013443A699A4207D207F018FB03460C227A
:101640001A604FF0FF3309E0084B1B68FB60074B43
:101650001A687B681344054A1360FB6818461837FC
:10166000BD4680BD00500020000400005C04002046
:10167000F005002080B400AF00BFBD4680BC7047BD
:10168000FFF7F8FF0B480C490C4A002302E0D4583E
:10169000C4500433C4188C42F9D3094A094C0023BE
:1016A00001E013600432A242FBD307F0E5FAFFF732
:1016B0003BFB704700000020EC010020DCB6000876
:1016C000F0010020F0050020FEE7000080B500AF2B
:1016D000084B1B68074A43F010031360032000F017
:1016E00057FD0F2000F008F8FFF7C4FD002318464F
:1016F00080BD00BF0020024080B582B000AF78609E
:10170000124B1A68124B1B7819464FF47A73B3FBCD
:10171000F1F3B2FBF3F3184600F061FD0346002B32
:1017200001D001230EE07B680F2B0AD800227968D4
:101730004FF0FF3000F037FD064A7B68136000234E
:1017400000E0012318460837BD4680BD0000002098
:10175000080000200400002080B400AF054B1B7877
:101760001A46054B1B681344034A136000BFBD466D
:1017700080BC7047080000206004002080B400AFE7
:10178000024B1B681846BD4680BC704760040020B1
:1017900080B584B000AF7860FFF7F0FFB8607B6879
:1017A000FB60FB68B3F1FF3F05D00A4B1B781A467C
:1017B000FB681344FB6000BFFFF7E0FF0246BB6815
:1017C000D31AFA689A42F7D800BF00BF1037BD4657
:1017D00080BD00BF0800002080B586B000AF7860F3
:1017E0000023FB7500233B610023BB600023FB60EB
:1017F0007B68002B01D10123BEE07B689B68002B36
:101800007B689B6A002B09D17B680022DA627B68C7
:10181000002283F824207868FFF74EFD786800F0F6
:10182000C5FB0346FB757B689B6A03F01003002B26
:1018300040F09980FB7D002B40F095807B689B6A8F
:1018400023F4885323F0020343F002027B689A6278
:101850007B685A687B68DB691A437B681B7B5B008B
:101860001343BA681343BB607B689B68B3F5807F02
:1018700003D07B689B68012B02D14FF4807300E09A
:1018800000233A6913433B617B681B7D012B19D10F
:101890007B681B7B002B09D17B689B69013B5A034A
:1018A0003B69134343F400633B610BE07B689B6A35
:1018B00043F020027B689A627B68DB6A43F0010296
:1018C0007B68DA627B681B685B6823F469417B682C
:1018D0001B683A690A435A607B681B689A68284B00
:1018E00013407A681268B9680B4393607B689B6801
:1018F000B3F5807F03D07B689B68012B04D17B68A4
:101900001B69013B1B05FB607B681B68DB6A23F4DA
:1019100070017B681B68FA680A43DA627B681B689F
:101920009A68184B1340BA689A420BD17B68002220
:10193000DA627B689B6A23F0030343F001027B6851
:101940009A6218E07B689B6A23F0120343F010024E
:101950007B689A627B68DB6A43F001027B68DA622B
:101960000123FB7507E07B689B6A43F010027B68EC
:101970009A620123FB75FB7D18461837BD4680BD72
:10198000FDF7E1FFFE0E1FFF80B584B000AF786069
:101990000023FB737B6893F82430012B01D10223D1
:1019A00098E07B68012283F82420786800F0A4FA8C
:1019B0000346FB73FB7B002B40F087807B689B6AB0
:1019C00023F4407323F0010343F480727B689A622E
:1019D0007B681B68414A934205D1414B5B6803F425
:1019E0007023002B15D17B689B6A23F480127B68DF
:1019F0009A627B681B685B6803F48063002B26D0C7
:101A00007B689B6A23F4405343F480527B689A625C
:101A10001DE07B689B6A43F480127B689A627B6856
:101A20001B682F4A934204D07B681B682B4A934261
:101A30000DD12B4B5B6803F48063002B07D07B68D0
:101A40009B6A23F4405343F480527B689A627B681C
:101A50009B6A03F48053002B06D07B68DB6A23F07B
:101A600006027B68DA6202E07B680022DA627B6849
:101A7000002283F824207B681B686FF002021A6042
:101A80007B681B689B6803F46023B3F5602F13D158
:101A90007B681B68114A934205D1114B5B6803F4C4
:101AA0007023002B08D17B681B689A687B681B68D1
:101AB00042F4A0029A600CE07B681B689A687B681D
:101AC0001B6842F480129A6003E07B68002283F86E
:101AD0002420FB7B18461037BD4680BD00280140FE
:101AE0000024014090B587B000AF786039600023D2
:101AF0007B610023FB6000233B61FFF73FFE7861C1
:101B00007B681B689B6803F48073002B0BD07B6899
:101B10009B6A43F020027B689A627B68002283F80C
:101B200024200123D3E07B681B685B6803F4807387
:101B3000002B31D17B681B68DB6A03F47003002B38
:101B40002AD121E03B68B3F1FF3F1DD03B68002B59
:101B500007D0FFF713FE02467B69D31A3A689A4210
:101B600012D27B681B681B6803F00203002B0BD1A9
:101B70007B689B6A43F004027B689A627B68002260
:101B800083F824200323A2E07B681B681B6803F012
:101B90000203002BD6D070E04F4B1C68022001F0EE
:101BA00099F90346B4FBF3F27B681B6819694B4B48
:101BB0000B40002B18D17B681B68D968484B0B4041
:101BC000002B11D17B681B681969464B0B40002B19
:101BD00008D17B681B68D968434B0B40002B01D1AF
:101BE000142320E029231EE07B681B6819693D4B04
:101BF0000B40002B06D17B681B68D9683A4B0B4021
:101C0000002B0DD07B681B681969384B0B40002BEB
:101C100008D17B681B68D968344B0B40002B01D17D
:101C2000542300E0FC2302FB03F33B6121E03B680B
:101C3000B3F1FF3F1AD03B68002B07D0FFF79EFDA2
:101C400002467B69D31A3A689A420FD2FB683A6916
:101C50009A420BD97B689B6A43F004027B689A62C4
:101C60007B68002283F82420032330E0FB680133E3
:101C7000FB60FB683A699A42D9D87B681B686FF0B1
:101C800012021A607B689B6A43F400727B689A6256
:101C90007B681B689B6803F46023B3F5602F15D144
:101CA0007B681B7B002B11D17B689B6A23F48072BD
:101CB0007B689A627B689B6A03F48053002B05D192
:101CC0007B689B6A43F001027B689A620023184696
:101CD0001C37BD4690BD00BF00000020244992245F
:101CE00024499200922449129224490049922400E6
:101CF00080B483B000AF78607B681B68DB6C1846EB
:101D00000C37BD4680BC704780B485B000AF7860AA
:101D100039600023FB730023BB607B6893F8243099
:101D2000012B01D10223DCE07B68012283F824200F
:101D30003B685B68062B1CD87B681B68596B3B684B
:101D40005A6813469B001344053B1F2202FA03F313
:101D5000DB4319403B6818683B685A6813469B0090
:101D60001344053B00FA03F27B681B680A435A637D
:101D70003CE03B685B680C2B1CD87B681B68196BCC
:101D80003B685A6813469B001344233B1F2202FA08
:101D900003F3DB4319403B6818683B685A681346F5
:101DA0009B001344233B00FA03F27B681B680A4341
:101DB0001A631BE07B681B68D96A3B685A68134644
:101DC0009B001344413B1F2202FA03F3DB431940FB
:101DD0003B6818683B685A6813469B001344413BB4
:101DE00000FA03F27B681B680A43DA623B681B68EF
:101DF000092B1CD97B681B68D9683B681A68134695
:101E00005B0013441E3B072202FA03F3DB43194035
:101E10003B6898683B681A6813465B0013441E3B96
:101E200000FA03F27B681B680A43DA6019E07B68FA
:101E30001B6819693B681A6813465B001344072244
:101E400002FA03F3DB4319403B6898683B681A6861
:101E500013465B00134400FA03F27B681B680A43D5
:101E60001A613B681B68102B03D03B681B68112B61
:101E700032D17B681B681D4A934225D17B681B6861
:101E80009B6803F40003002B26D17B681B689A68CB
:101E90007B681B6842F400029A603B681B68102B49
:101EA0001AD1134B1B68134AA2FB03239A0C134647
:101EB0009B0013445B00BB6002E0BB68013BBB605E
:101EC000BB68002BF9D107E07B689B6A43F02002D6
:101ED0007B689A620123FB737B68002283F82420CD
:101EE000FB7B18461437BD4680BC70470024014078
:101EF0000000002083DE1B4380B584B000AF786013
:101F00000023FB600023BB607B681B689B6803F0B9
:101F10000103012B40D07B681B689A687B681B68B3
:101F200042F001029A601F4B1B681F4AA2FB032369
:101F30009B0CBB6002E0BB68013BBB60BB68002B35
:101F4000F9D1FFF71BFCF8601FE0FFF717FC024612
:101F5000FB68D31A022B18D97B681B689B6803F0B7
:101F60000103012B11D07B689B6A43F010027B6850
:101F70009A627B68DB6A43F001027B68DA627B6805
:101F8000002283F82420012307E07B681B689B68FC
:101F900003F00103012BD8D1002318461037BD46AA
:101FA00080BD00BF0000002083DE1B4380B584B0ED
:101FB00000AF78600023FB607B681B689B6803F0C0
:101FC0000103012B2ED17B681B689A687B681B6814
:101FD00022F001029A60FFF7D1FBF8601BE0FFF7E7
:101FE000CDFB0246FB68D31A022B14D97B681B6811
:101FF0009B6803F00103012B0DD17B689B6A43F0C2
:1020000010027B689A627B68DB6A43F001027B689E
:10201000DA62012307E07B681B689B6803F0010319
:10202000012BDCD0002318461037BD4680BD0000D0
:1020300080B485B000AF78607B6803F00703FB6075
:102040000C4BDB68BB60BA684FF6FF031340BB6004
:10205000FB681A02BB68134343F0BF6343F40033C9
:10206000BB60044ABB68D36000BF1437BD4680BC68
:10207000704700BF00ED00E080B400AF044BDB68A8
:102080001B0A03F007031846BD4680BC704700BF1B
:1020900000ED00E080B483B000AF03463960FB710F
:1020A00097F90730002B0ADB3B68DAB20C4997F945
:1020B00007301201D2B20B4483F800230AE03B68D8
:1020C000DAB20849FB7903F00F03043B1201D2B2E4
:1020D0000B441A7600BF0C37BD4680BC704700BF6A
:1020E00000E100E000ED00E080B489B000AFF860EE
:1020F000B9607A60FB6803F00703FB61FB69C3F119
:102100000703042B28BF0423BB61FB690433062BA0
:1021100002D9FB69033B00E000237B614FF0FF32F3
:10212000BB6902FA03F3DA43BB681A407B699A4041
:102130004FF0FF317B6901FA03F3D9437B680B4011
:10214000134318462437BD4680BC704780B582B023
:1021500000AF78607B68013BB3F1807F01D301233E
:102160000FE00A4A7B68013B53600F214FF0FF30BC
:10217000FFF790FF054B00229A60044B07221A607C
:10218000002318460837BD4680BD00BF10E000E0C0
:1021900080B582B000AF78607868FFF749FF00BF74
:1021A0000837BD4680BD80B586B000AF0346B96034
:1021B0007A60FB7300237B61FFF75EFF78617A68CA
:1021C000B9687869FFF790FF024697F90F3011461A
:1021D0001846FFF75FFF00BF1837BD4680BD80B5CA
:1021E00082B000AF78607868FFF7B0FF034618460A
:1021F0000837BD4680BD000080B48BB000AF78606A
:10220000396000237B6200233B6269E101227B6A23
:1022100002FA03F3FB613B681B68FA691340BB6178
:10222000BA69FB699A4240F058813B685B689A4AF8
:1022300093425ED0984A934275D8984A934258D0B8
:10224000964A93426FD8964A934252D0944A934208
:1022500069D8944A93424CD0924A934263D8924AA6
:10226000934246D0904A93425DD8122B2AD8122B23
:1022700059D801A252F823F0F3220008CD22000819
:10228000DF22000821230008272300082723000855
:1022900027230008272300082723000827230008F6
:1022A00027230008272300082723000827230008E6
:1022B000272300082723000827230008D522000829
:1022C000E9220008794A934213D02CE03B68DB688E
:1022D0003B6229E03B68DB6804333B6224E03B68F7
:1022E000DB6808333B621FE03B68DB680C333B6212
:1022F0001AE03B689B68002B02D104233B6213E089
:102300003B689B68012B05D108233B627B68FA6917
:102310001A6109E008233B627B68FA695A6103E0AD
:1023200000233B6200E000BFBB69FF2B01D87B6844
:1023300001E07B6804337B61BB69FF2B02D87B6AB9
:102340009B0002E07B6A083B9B003B617B691A684B
:102350000F213B6901FA03F3DB431A40396A3B69F9
:1023600001FA03F31A437B691A603B685B6803F068
:102370008053002B00F0B1804D4B9B694C4A43F0D9
:10238000010393614A4B9B6903F00103BB60BB6887
:10239000484A7B6A9B08023352F82330FB607B6A11
:1023A00003F003039B000F2202FA03F3DB43FA68F6
:1023B0001340FB607B68404A934213D07B683F4ADE
:1023C00093420DD07B683E4A934207D07B683D4ADA
:1023D000934201D1032306E0042304E0022302E038
:1023E000012300E000237A6A02F003029200934086
:1023F000FA681343FB602F497B6A9B080233FA6833
:1024000041F823203B685B6803F48013002B06D05F
:102410002D4B9A682C49BB6913438B6006E02A4B0D
:102420009A68BB69DB43284913408B603B685B6853
:1024300003F40013002B06D0234BDA682249BB6952
:102440001343CB6006E0204BDA68BB69DB431E49CF
:102450001340CB603B685B6803F40033002B06D06D
:10246000194B5A681849BB6913434B6006E0164B79
:102470005A68BB69DB43144913404B603B685B6897
:1024800003F48033002B21D00F4B1A680E49BB692F
:1024900013430B6021E000BF000032100000311038
:1024A0000000221000002110000012100000111086
:1024B000001002400000014000080140000C0140F3
:1024C0000010014000140140000401400B4B1A6849
:1024D000BB69DB43094913400B607B6A01337B62B4
:1024E0003B681A687B6A22FA03F3002B7FF48EAEF6
:1024F00000BF00BF2C37BD4680BC704700040140C0
:1025000080B483B000AF78600B467B8013467B704D
:102510007B78002B03D07A887B681A6103E07B8884
:102520001A047B681A6100BF0C37BD4680BC704737
:1025300080B400AF034B01221A6000BFBD4680BCCF
:10254000704700BF20000E4280B586B000AF7860B3
:102550007B68002B01D1012372E27B681B6803F0CA
:102560000103002B00F08780924B5B6803F00C03A3
:10257000042B0CD08F4B5B6803F00C03082B12D19B
:102580008C4B5B6803F48033B3F5803F0BD1894BF0
:102590001B6803F40033002B6CD07B685B68002B56
:1025A00068D101234CE27B685B68B3F5803F06D1BC
:1025B000804B1B687F4A43F4803313602EE07B68B6
:1025C0005B68002B0CD17B4B1B687A4A23F4803369
:1025D0001360784B1B68774A23F4802313601DE057
:1025E0007B685B68B3F5A02F0CD1724B1B68714AF6
:1025F00043F4802313606F4B1B686E4A43F48033AF
:1026000013600BE06B4B1B686A4A23F48033136042
:10261000684B1B68674A23F4802313607B685B6800
:10262000002B13D0FFF7AAF8386108E0FFF7A6F8EF
:1026300002463B69D31A642B01D9032300E25D4BA8
:102640001B6803F40033002BF0D014E0FFF796F87A
:10265000386108E0FFF792F802463B69D31A642B11
:1026600001D90323ECE1534B1B6803F40033002B27
:10267000F0D100E000BF7B681B6803F00203002B71
:1026800063D04C4B5B6803F00C03002B0BD0494B21
:102690005B6803F00C03082B1CD1464B5B6803F40A
:1026A0008033002B16D1434B1B6803F00203002B31
:1026B00005D07B681B69012B01D00123C0E13D4B94
:1026C0001B6823F0F8027B685B69DB003949134320
:1026D0000B603AE07B681B69002B20D0364B01224F
:1026E0001A60FFF74BF8386108E0FFF747F8024639
:1026F0003B69D31A022B01D90323A1E12D4B1B689F
:1027000003F00203002BF0D02A4B1B6823F0F802E1
:102710007B685B69DB00274913430B6015E0264BA0
:1027200000221A60FFF72AF8386108E0FFF726F860
:1027300002463B69D31A022B01D9032380E11D4BCA
:102740001B6803F00203002BF0D17B681B6803F0C9
:102750000803002B3AD07B689B69002B19D0174BDC
:1027600001221A60FFF70AF8386108E0FFF706F85F
:1027700002463B69D31A022B01D9032360E10D4BBA
:102780005B6A03F00203002BF0D0012000F0CEFAC8
:102790001CE00A4B00221A60FEF7F0FF38610FE0E0
:1027A000FEF7ECFF02463B69D31A022B08D903233C
:1027B00046E100BF00100240000042428004424255
:1027C000924B5B6A03F00203002BE9D17B681B6824
:1027D00003F00403002B00F0A6800023FB758B4B55
:1027E000DB6903F08053002B0DD1884BDB69874AEE
:1027F00043F08053D361854BDB6903F08053BB60AA
:10280000BB680123FB75824B1B6803F48073002BAC
:1028100018D17F4B1B687E4A43F480731360FEF728
:10282000ADFF386108E0FEF7A9FF02463B69D31A05
:10283000642B01D9032303E1754B1B6803F48073F8
:10284000002BF0D07B68DB68012B06D16F4B1B6A35
:102850006E4A43F0010313622DE07B68DB68002BB6
:102860000CD16A4B1B6A694A23F001031362674B60
:102870001B6A664A23F0040313621CE07B68DB6872
:10288000052B0CD1614B1B6A604A43F004031362B1
:102890005E4B1B6A5D4A43F0010313620BE05B4B26
:1028A0001B6A5A4A23F001031362584B1B6A574AAA
:1028B00023F0040313627B68DB68002B15D0FEF75E
:1028C0005DFF38610AE0FEF759FF02463B69D31A03
:1028D00041F28832934201D90323B1E04B4B1B6A8A
:1028E00003F00203002BEED014E0FEF747FF38613F
:1028F0000AE0FEF743FF02463B69D31A41F28832F1
:10290000934201D903239BE0404B1B6A03F002036F
:10291000002BEED1FB7D012B05D13C4BDB693B4A03
:1029200023F08053D3617B68DB69002B00F0878044
:10293000364B5B6803F00C03082B61D07B68DB69C6
:10294000022B46D1334B00221A60FEF717FF386185
:1029500008E0FEF713FF02463B69D31A022B01D9A8
:1029600003236DE0294B1B6803F00073002BF0D1AB
:102970007B681B6AB3F5803F08D1244B5B6823F466
:1029800000327B689B68214913434B601F4B5B6897
:1029900023F474127B68196A7B685B6A0B431B49DA
:1029A00013434B601B4B01221A60FEF7E7FE3861B0
:1029B00008E0FEF7E3FE02463B69D31A022B01D979
:1029C00003233DE0114B1B6803F00073002BF0D094
:1029D00035E0104B00221A60FEF7D0FE386108E0A7
:1029E000FEF7CCFE02463B69D31A022B01D9032322
:1029F00026E0064B1B6803F00073002BF0D11EE0AD
:102A00007B68DB69012B07D1012319E0001002402C
:102A100000700040600042420B4B5B68FB60FB684B
:102A200003F480327B681B6A9A4206D1FB6803F488
:102A300070127B685B6A9A4201D0012300E0002398
:102A400018461837BD4680BD0010024080B584B0DE
:102A500000AF786039607B68002B01D10123D0E0A2
:102A60006A4B1B6803F007033A689A4210D9674B18
:102A70001B6823F0070265493B6813430B60634BF7
:102A80001B6803F007033A689A4201D00123B8E0BB
:102A90007B681B6803F00203002B20D07B681B6857
:102AA00003F00403002B05D0594B5B68584A43F4EC
:102AB000E06353607B681B6803F00803002B05D0BC
:102AC000534B5B68524A43F460535360504B5B680E
:102AD00023F0F0027B689B684D4913434B607B6891
:102AE0001B6803F00103002B40D07B685B68012B5F
:102AF00007D1474B1B6803F40033002B15D101238A
:102B00007FE07B685B68022B07D1414B1B6803F0B9
:102B10000073002B09D1012373E03D4B1B6803F0C8
:102B20000203002B01D101236BE0394B5B6823F0DA
:102B300003027B685B68364913434B60FEF71EFE59
:102B4000F8600AE0FEF71AFE0246FB68D31A41F26B
:102B50008832934201D9032353E02D4B5B6803F085
:102B60000C027B685B689B009A42EBD1274B1B6889
:102B700003F007033A689A4210D2244B1B6823F0F3
:102B8000070222493B6813430B60204B1B6803F08C
:102B900007033A689A4201D0012332E07B681B6840
:102BA00003F00403002B08D0194B5B6823F4E062A8
:102BB0007B68DB68164913434B607B681B6803F036
:102BC0000803002B09D0124B5B6823F460527B682A
:102BD0001B69DB000E4913434B6000F021F80246ED
:102BE0000B4B5B681B0903F00F030A49CB5C22FA0D
:102BF00003F3094A1360094B1B681846FEF77CFD76
:102C0000002318461037BD4680BD00BF002002409B
:102C100000100240A4B200080000002004000020C0
:102C200080B487B000AF0023FB600023BB600023AB
:102C30007B6100237B6000233B611E4B5B68FB6074
:102C4000FB6803F00C03042B02D0082B03D027E011
:102C5000194B3B6127E0FB689B0C03F00F03174AFD
:102C6000D35C7B60FB6803F48033002B10D0114BE6
:102C70005B685B0C03F00103114AD35CBB607B68AB
:102C80000D4A03FB02F2BB68B2FBF3F37B6104E085
:102C90007B680C4A02FB03F37B617B693B6102E0CA
:102CA000054B3B6100BF3B6918461C37BD4680BCE5
:102CB000704700BF0010024000127A00BCB200084A
:102CC000CCB2000800093D0080B400AF024B1B6885
:102CD0001846BD4680BC70470000002080B500AF9C
:102CE000FFF7F2FF0246054B5B681B0A03F0070380
:102CF0000349CB5C22FA03F3184680BD0010024062
:102D0000B4B2000880B500AFFFF7DEFF0246054B06
:102D10005B68DB0A03F007030349CB5C22FA03F389
:102D2000184680BD00100240B4B2000880B485B0DF
:102D300000AF78600A4B1B680A4AA2FB03235B0AB8
:102D40007A6802FB03F3FB6000BFFB685A1EFA605F
:102D5000002BF9D100BF00BF1437BD4680BC7047BF
:102D600000000020D34D621080B586B000AF7860BF
:102D700000233B610023FB607B681B6803F00103B9
:102D8000002B7DD00023FB754F4BDB6903F0805394
:102D9000002B0DD14C4BDB694B4A43F08053D36180
:102DA000494BDB6903F08053BB60BB680123FB75B3
:102DB000464B1B6803F48073002B18D1434B1B68F0
:102DC000424A43F480731360FEF7D8FC386108E090
:102DD000FEF7D4FC02463B69D31A642B01D90323C6
:102DE0006DE03A4B1B6803F48073002BF0D0364B38
:102DF0001B6A03F44073FB60FB68002B2ED07B68DA
:102E00005B6803F44073FA689A4227D02E4B1B6A22
:102E100023F44073FB602E4B01221A602C4B0022DE
:102E20001A60294AFB681362FB6803F00103002B58
:102E300014D0FEF7A3FC38610AE0FEF79FFC0246BF
:102E40003B69D31A41F28832934201D9032336E019
:102E50001D4B1B6A03F00203002BEED01A4B1B6ABA
:102E600023F440727B685B68174913430B62FB7D58
:102E7000012B05D1144BDB69134A23F08053D36136
:102E80007B681B6803F00203002B08D00E4B5B68C5
:102E900023F440427B689B680B4913434B607B687B
:102EA0001B6803F01003002B08D0074B5B6823F46A
:102EB00080027B68DB68044913434B60002318469B
:102EC0001837BD4680BD00BF0010024000700040B2
:102ED0004004424280B588B000AF786000237B6137
:102EE0000023FB6100233B610023FB600023BB61E7
:102EF0007B68102B0AD07B68102B00F28A807B68DD
:102F0000012B45D07B68022B75D082E0464B5B6875
:102F1000FB60454B1B6803F08073002B7BD0FB6884
:102F20009B0C03F00F03414AD35C3B61FB6803F445
:102F30008033002B15D03C4B5B685B0C03F0010326
:102F40003B4AD35C7B61FB6803F48033002B0DD0DC
:102F5000384A7B69B2FBF3F23B6902FB03F3FB6186
:102F600004E03B69344A02FB03F3FB612E4B5B68D0
:102F700003F48003B3F5800F02D1FB69BB614AE023
:102F8000FB695B002D4AA2FB03235B08BB6142E0A7
:102F9000254B1B6AFB60FB6803F44073B3F5807F2D
:102FA00008D1FB6803F00203002B03D04FF4004369
:102FB000BB611FE0FB6803F44073B3F5007F09D1E8
:102FC000194B5B6A03F00203002B03D049F6404320
:102FD000BB610FE0FB6803F44073B3F5407F1CD185
:102FE000114B1B6803F40033002B16D04FF224431F
:102FF000BB6112E011E0FFF785FE02460A4B5B68F9
:103000009B0B03F0030301335B00B2FBF3F3BB61E3
:1030100004E000BF02E000BF00E000BFBB6918464B
:103020002037BD4680BD00BF00100240D0B200086E
:10303000E0B2000800127A0000093D00ABAAAAAA7B
:1030400080B584B000AF78600023FB607B68002B04
:1030500001D101237AE07B685B7CDBB2002B05D1D8
:103060007B6800221A747868FEF762F97B68022296
:103070005A74786800F083FB0346002B04D07B6809
:1030800004225A74012361E0786800F03CFC034696
:10309000002B04D07B6804225A74012356E07B681D
:1030A0001B685A687B681B6822F007025A607B68BD
:1030B0009B68002B05D0274B1B6B264A23F001038E
:1030C0001363244BDB6A23F460727B689B6821499D
:1030D0001343CB627B685B68B3F1FF3F03D07B682F
:1030E0005B68FB600EE00120FFF7F4FEF860FB6810
:1030F000002B04D17B6804225A74012326E0FB686C
:10310000013BFB60FB681A0C7B681B6802F00F0236
:103110009A607B681B68FA6892B2DA60786800F09F
:103120001AFC0346002B04D07B6804225A74012346
:103130000CE07B680022DA737B6801225A737B689B
:1031400001229A737B6801225A74002318461037B3
:10315000BD4680BD006C004090B587B000AFF86000
:10316000B9607A6000237B6100233B61FB68002B20
:1031700002D0BB68002B01D1012380E0FB681B7CDF
:10318000012B01D102237AE0FB6801221A74FB684B
:1031900002225A747B68002B13D1BB681B781A4635
:1031A0004FF4616303FB02F2BB685B7819460B4680
:1031B0001B015B1A9B001344BA68927813447B612D
:1031C0001EE0BB681B78184600F00AFC03461A464E
:1031D0004FF4616303FB02F4BB685B78184600F0B0
:1031E000FFFB03461A4613461B019B1A9B001C4417
:1031F000BB689B78184600F0F3FB034623447B61D1
:103200007969F86800F018FB0346002B07D0FB68CB
:1032100004225A74FB6800221A7401232FE0FB6811
:103220001B685A68FB681B6822F005025A60F86840
:1032300000F029FB38613B69B3F1FF3F18D03A69D0
:103240007B699A4214D23B6903F5A83303F5C07336
:103250003B613969F86800F02FFB0346002B07D06B
:10326000FB6804225A74FB6800221A74012306E0EA
:10327000FB6801225A74FB6800221A740023184666
:103280001C37BD4690BD000080B588B000AFF86027
:10329000B9607A600023BB610023FB6100237B617E
:1032A00000233B61FB68002B02D0BB68002B01D1DF
:1032B0000123B5E0FB681B685B6803F00403002B87
:1032C00001D00123ACE0F86800F086FAB861BB6970
:1032D000554AA2FB0323DB0A3B61BA69524BA3FBAD
:1032E0000213DB0A4FF4616101FB03F3D31A4F4A67
:1032F000A2FB03235B09DAB2BB685A70BB694A4A76
:10330000A2FB0312D20A4FF4616101FB02F29A1A86
:10331000464BA3FB021359090B461B015B1A9B008A
:10332000D11ACAB2BB689A703B69172B55D93B6951
:103330003F4AA2FB03231B097B6139693C4BA3FB7A
:1033400001231A0913465B001344DB00CA1AD2B2E8
:10335000BB681A70F86800F096FAF861FB69B3F17F
:10336000FF3F08D0FA69BB699A4204D9FA69BB6980
:10337000D31AFB6102E04FF0FF33FB617B692D4AFA
:1033800002FB03F3BA69D31ABB61B969F86800F0AC
:1033900053FA0346002B01D0012341E0FB69B3F14E
:1033A000FF3F0CD0FA69BB691344FB61F969F86807
:1033B00000F082FA0346002B0AD0012330E0F969BD
:1033C000F86800F079FA0346002B01D0012327E0CA
:1033D0007969F86800F021FB03E03B69DAB2BB6869
:1033E0001A707B68002B1AD0BB681B78184600F057
:1033F000DAFA03461A46BB681A70BB685B7818464F
:1034000000F0D1FA03461A46BB685A70BB689B7835
:10341000184600F0C8FA03461A46BB689A700023A3
:1034200018462037BD4680BDC5B3A29189888888DB
:10343000ABAAAAAA8051010080B588B000AFF8609D
:10344000B9607A600023FB610023BB6100237B61CC
:10345000FB68002B02D0BB68002B01D1012397E051
:10346000FB681B7C012B01D1022391E0FB68012248
:103470001A74FB6802225A747B68002B0CD1BB685B
:10348000DA78FB68DA73BB685A78FB685A73BB68F2
:103490009A78FB689A731AE0BB68DB78184600F0EC
:1034A0009FFA03461A46FB68DA73BB685B781846D6
:1034B00000F096FA03461A46FB685A73BB689B787D
:1034C000184600F08DFA03461A46FB689A73FB68AB
:1034D000DB7B1846FB68597BFB689B7B1A4600F038
:1034E00077FB03461A46FB681A73FB681A7BBB68B6
:1034F0001A70F86800F070F9F861FB69264AA2FBBF
:103500000323DB0A7B617B69182B3AD97B69234A49
:10351000A2FB03231B09224A02FB03F3FA69D31A15
:10352000FB61F969F86800F087F90346002B07D0C2
:10353000FB6804225A74FB6800221A74012327E0F6
:10354000F86800F0A0F9B861BB69B3F1FF3F18D08B
:10355000BA69FB699A4214D2BB6903F5A83303F533
:10356000C073BB61B969F86800F0A6F90346002B87
:1035700007D0FB6804225A74FB6800221A740123E6
:1035800006E0FB6801225A74FB6800221A740023CB
:1035900018462037BD4680BDC5B3A291ABAAAAAAE2
:1035A0008051010080B586B000AFF860B9607A60E4
:1035B00007F1140300210A461A800A469A70FB6834
:1035C000002B02D0BB68002B01D101233AE007F1A8
:1035D000140300221946F868FFF756FE0346002B35
:1035E00001D001232EE0FB681A7BBB681A70FB68D0
:1035F000DA7BBB68DA70FB685A7BBB685A70FB6881
:103600009A7BBB689A707B68002B1AD0BB68DB780A
:10361000184600F0C8F903461A46BB68DA70BB6862
:103620005B78184600F0BFF903461A46BB685A702B
:10363000BB689B78184600F0B6F903461A46BB688B
:103640009A70002318461837BD4680BD90B589B0E2
:1036500000AFF860B9607A600023FB6107F11403E2
:1036600000210A461A800A469A70FB68002B02D095
:10367000BB68002B01D101237DE0FB681B7C012B83
:1036800001D1022377E0FB6801221A74FB68022251
:103690005A7407F1140300221946F868FFF7F4FD85
:1036A0000346002B01D0012365E03B7D1A464FF411
:1036B000616303FB02F27B7D19460B461B015B1A1B
:1036C0009B001344BA7D1344BB617B68002B13D16C
:1036D000BB681B781A464FF4616303FB02F2BB68B8
:1036E0005B7819460B461B015B1A9B001344BA68B2
:1036F00092781344FB611EE0BB681B78184600F00B
:103700006FF903461A464FF4616303FB02F4BB688A
:103710005B78184600F064F903461A4613461B010D
:103720009B1A9B001C44BB689B78184600F058F914
:1037300003462344FB61FA69BB699A4205D2FB69DF
:1037400003F5A83303F5C073FB61F969F86800F06D
:10375000B3F80346002B07D0FB6804225A74FB68B9
:1037600000221A74012306E0FB6801225A74FB68E8
:1037700000221A74002318462437BD4690BD80B538
:1037800084B000AF78600023FB607B68002B01D120
:1037900001231DE07B681B685A687B681B6822F068
:1037A00008025A60FDF7EAFFF86009E0FDF7E6FF5E
:1037B0000246FB68D31AB3F57A7F01D9032307E0E9
:1037C0007B681B685B6803F00803002BEED00023C6
:1037D00018461037BD4680BD80B487B000AF786012
:1037E00000237B8200233B820023FB8100237B613B
:1037F0007B681B689B697B827B681B68DB69FB813C
:103800007B681B689B693B827A8A3B8A9A4208D014
:103810003B8A1A047B681B68DB699BB213437B619C
:1038200004E07B8A1A04FB8913437B617B69184699
:103830001C37BD4680BC704780B584B000AF78604F
:1038400039600023FB73786800F05DF80346002BB5
:1038500002D00123FB7311E07B681B683A68120CED
:103860009A617B681B683A6892B2DA61786800F006
:1038700072F80346002B01D00123FB73FB7B184633
:103880001037BD4680BD80B485B000AF786000239E
:10389000FB810023BB817B681B681B6AFB817B6803
:1038A0001B685B6ABB81FB891A04BB8913431846FA
:1038B0001437BD4680BC704780B584B000AF7860D7
:1038C00039600023FB73786800F01DF80346002B75
:1038D00002D00123FB7311E07B681B683A68120C6D
:1038E0001A627B681B683A6892B25A62786800F084
:1038F00032F80346002B01D00123FB73FB7B1846F3
:103900001037BD4680BD80B584B000AF786000231D
:10391000FB60FDF733FFF86009E0FDF72FFF02467B
:10392000FB68D31AB3F57A7F01D903230FE07B68D4
:103930001B685B6803F02003002BEED07B681B68DC
:103940005A687B681B6842F010025A6000231846D0
:103950001037BD4680BD80B584B000AF78600023CD
:10396000FB607B681B685A687B681B6822F010024A
:103970005A60FDF703FFF86009E0FDF7FFFE02461D
:10398000FB68D31AB3F57A7F01D9032307E07B687C
:103990001B685B6803F02003002BEED00023184661
:1039A0001037BD4680BD80B485B000AF0346FB71C3
:1039B0000023FB6005E0FB680133FB60FB790A3BF9
:1039C000FB71FB79092BF6D8FB68DBB21B01DAB27D
:1039D000FB791343DBB218461437BD4680BC7047F1
:1039E00080B485B000AF0346FB710023FB60FB7918
:1039F0001B09DBB21A4613469B0013445B00FB60B5
:103A0000FB7903F00F03DAB2FB68DBB21344DBB2DD
:103A100018461437BD4680BC704780B586B000AFED
:103A20007860396000237B6100233B610023FB60E9
:103A30000023BB607B68DB7B7B617B685B7B3B61DE
:103A40007B689B7BFB600023BB606FE03B69012BC5
:103A500011D03B69032B0ED03B69052B0BD03B6982
:103A6000072B08D03B69082B05D03B690A2B02D0F5
:103A70003B690C2B17D1FB681E2B03D8FB68013365
:103A8000FB6050E03B690C2B05D03B6901333B6187
:103A90000123FB6047E001233B610123FB607B695D
:103AA00001337B613FE03B69042B08D03B69062B67
:103AB00005D03B69092B02D03B690B2B0CD1FB686D
:103AC0001D2B03D8FB680133FB602CE03B690133FD
:103AD0003B610123FB6026E03B69022B23D1FB689D
:103AE0001B2B03D8FB680133FB601CE0FB681C2B1D
:103AF00011D17B699BB2184600F038F80346002BC1
:103B000003D0FB680133FB600DE03B6901333B618F
:103B10000123FB6007E0FB681D2B04D13B690133E7
:103B20003B610123FB60BB680133BB60BA683B6843
:103B30009A428BD37B69DAB27B68DA733B69DAB27B
:103B40007B685A73FB68DAB27B689A733B69DBB2B5
:103B5000FA68D2B21946786900F03AF803461A4674
:103B60007B681A7300BF1837BD4680BD80B483B030
:103B700000AF0346FB80FB8803F003039BB2002BDE
:103B800001D000231DE0FB88104AA2FB031252095A
:103B9000642101FB02F29B1A9BB2002B01D001238E
:103BA0000FE0FB88094AA2FB0312D2094FF4C87147
:103BB00001FB02F29B1A9BB2002B01D1012300E012
:103BC000002318460C37BD4680BC70471F85EB515B
:103BD00080B485B000AF78600B46FB701346BB70B5
:103BE0000023BB600023FB607B6803F5FA63BB60C6
:103BF000FB78022B2DD8FA7813465B001344DB00C8
:103C00009B1A2C4AA2FB03235A08BB781A44BB68B0
:103C10001A44BB68013B9B081A44BB68013B264918
:103C2000A1FB03135B09D21ABB68013B2249A1FB2C
:103C30000313DB0913441A1D204BA3FB0213D11AF3
:103C400049080B4499080B46DB005B1AD31AFB604A
:103C500029E0FA7813465B001344DB009B1A154AEF
:103C6000A2FB03235A08BB781A44BB681A44BB68FA
:103C70009B081A44BB681049A1FB03135B09D21AC5
:103C8000BB680D49A1FB0313DB0913449A1C0B4BC2
:103C9000A3FB0213D11A49080B4499080B46DB0019
:103CA0005B1AD31AFB60FB68DBB218461437BD46BB
:103CB00080BC7047398EE3381F85EB51254992242B
:103CC00080B582B000AF78607B68002B01D1012302
:103CD00076E07B685B6A002B08D17B685B68B3F594
:103CE000827F09D07B680022DA6105E07B680022D0
:103CF0001A617B6800225A617B6800229A627B68A5
:103D000093F85130DBB2002B06D17B68002283F898
:103D100050207868FDF730FB7B68022283F8512041
:103D20007B681B681A687B681B6822F040021A6077
:103D30007B685B6803F482727B689B6803F40443CE
:103D40001A437B68DB6803F400631A437B681B69D2
:103D500003F002031A437B685B6903F001031A4313
:103D60007B689B6903F400731A437B68DB6903F08B
:103D700038031A437B681B6A03F0800342EA03019D
:103D80007B689B6A03F400527B681B680A431A60D5
:103D90007B689B691A0C7B681B6802F004025A60FE
:103DA0007B681B68DA697B681B6822F40062DA6151
:103DB0007B6800225A657B68012283F8512000232A
:103DC00018460837BD4680BD80B588B000AFF860A2
:103DD000B9603B601346FB800023FB77FB6893F8D8
:103DE0005030012B01D102232DE1FB68012283F821
:103DF0005020FDF7C3FCB861FB88FB82FB6893F899
:103E00005130DBB2012B02D00223FB7716E1BB68F5
:103E1000002B02D0FB88002B02D10123FB770DE1A0
:103E2000FB68032283F85120FB6800225A65FB6877
:103E3000BA681A63FB68FA889A86FB68FA88DA8699
:103E4000FB6800229A63FB6800229A87FB680022C5
:103E5000DA87FB6800225A64FB6800221A64FB6858
:103E60009B68B3F5004F0FD1FB681B681A68FB68AD
:103E70001B6822F040021A60FB681B681A68FB6826
:103E80001B6842F480421A60FB681B681B6803F0E1
:103E90004003402B07D0FB681B681A68FB681B684F
:103EA00042F040021A60FB68DB68B3F5006F4FD147
:103EB000FB685B68002B02D0FB8A012B42D1FB68B8
:103EC0001B6B1A88FB681B68DA60FB681B6B9A1C0B
:103ED000FB681A63FB68DB8E9BB2013B9AB2FB68FE
:103EE000DA862FE0FB681B689B6803F00203022B55
:103EF00012D1FB681B6B1A88FB681B68DA60FB68D1
:103F00001B6B9A1CFB681A63FB68DB8E9BB2013B40
:103F10009AB2FB68DA8615E0FDF730FC0246BB6911
:103F2000D31A3A689A4203D83B68B3F1FF3F02D1F3
:103F30003B68002B06D10323FB77FB68012283F843
:103F400051207BE0FB68DB8E9BB2002BCAD150E096
:103F5000FB685B68002B02D0FB8A012B44D1FB6815
:103F60001A6BFB681B680C3312781A70FB681B6BAA
:103F70005A1CFB681A63FB68DB8E9BB2013B9AB24A
:103F8000FB68DA8630E0FB681B689B6803F002037D
:103F9000022B13D1FB681A6BFB681B680C33127879
:103FA0001A70FB681B6B5A1CFB681A63FB68DB8E7C
:103FB0009BB2013B9AB2FB68DA8615E0FDF7DEFBA7
:103FC0000246BB69D31A3A689A4203D83B68B3F1F8
:103FD000FF3F02D13B68002B06D10323FB77FB6830
:103FE000012283F8512029E0FB68DB8E9BB2002B75
:103FF000C9D1BA693968F86800F062FA0346002B43
:1040000002D0FB6820225A65FB689B68002B0AD10E
:1040100000233B61FB681B68DB683B61FB681B6836
:104020009B683B613B69FB685B6D002B02D0012301
:10403000FB7703E0FB68012283F85120FB68002234
:1040400083F85020FB7F18462037BD4680BD80B5E1
:104050008CB000AFF860B9607A607B800123FB62AE
:10406000002387F82B30FB6893F85030012B01D1E7
:10407000022398E1FB68012283F85020FDF77EFBC4
:104080007862FB6893F8513087F82330FB685B68EF
:10409000FB617B887B8397F82330012B0FD0FB6972
:1040A000B3F5827F07D1FB689B68002B03D197F89B
:1040B0002330042B03D0022387F82B306DE1BB683B
:1040C000002B05D07B68002B02D07B88002B03D10E
:1040D000012387F82B3060E1FB6893F85130DBB2A5
:1040E000042B03D0FB68052283F85120FB680022D3
:1040F0005A65FB687A689A63FB687A88DA87FB6896
:104100007A889A87FB68BA681A63FB687A88DA86C5
:10411000FB687A889A86FB6800221A64FB68002292
:104120005A64FB681B681B6803F04003402B07D0F0
:10413000FB681B681A68FB681B6842F040021A6043
:10414000FB68DB68B3F5006F7CD1FB685B68002B14
:1041500002D07B8B012B6AD1FB681B6B1A88FB6832
:104160001B68DA60FB681B6B9A1CFB681A63FB68B0
:10417000DB8E9BB2013B9AB2FB68DA8657E0FB68A4
:104180001B689B6803F00203022B1BD1FB68DB8ECC
:104190009BB2002B16D0FB6A012B13D1FB681B6B63
:1041A0001A88FB681B68DA60FB681B6B9A1CFB684B
:1041B0001A63FB68DB8E9BB2013B9AB2FB68DA861E
:1041C0000023FB62FB681B689B6803F00103012B63
:1041D00019D1FB68DB8F9BB2002B14D0FB681B68E6
:1041E000DA68FB689B6B92B21A80FB689B6B9A1C27
:1041F000FB689A63FB68DB8F9BB2013B9AB2FB685A
:10420000DA870123FB62FDF7B9FA02467B6AD31A0B
:10421000BA6B9A420BD8BB6BB3F1FF3F07D00323B5
:1042200087F82B30FB68012283F85120B5E0FB684A
:10423000DB8E9BB2002BA2D1FB68DB8F9BB2002BE5
:104240009DD180E0FB685B68002B02D07B8B012B4B
:104250006FD1FB681A6BFB681B680C3312781A70FD
:10426000FB681B6B5A1CFB681A63FB68DB8E9BB2F6
:10427000013B9AB2FB68DA865BE0FB681B689B68CF
:1042800003F00203022B1CD1FB68DB8E9BB2002BD8
:1042900017D0FB6A012B14D1FB681A6BFB681B68F3
:1042A0000C3312781A70FB681B6B5A1CFB681A637C
:1042B000FB68DB8E9BB2013B9AB2FB68DA86002377
:1042C000FB62FB681B689B6803F00103012B19D19B
:1042D000FB68DB8F9BB2002B14D0FB681B68DA688D
:1042E000FB689B6BD2B21A70FB689B6B5A1CFB6815
:1042F0009A63FB68DB8F9BB2013B9AB2FB68DA875B
:104300000123FB62FDF73AFA02467B6AD31ABA6BC5
:104310009A4203D8BB6BB3F1FF3F02D1BB6B002BBA
:1043200007D1032387F82B30FB68012283F8512043
:1043300033E0FB68DB8E9BB2002B9ED1FB68DB8FEA
:104340009BB2002B99D17A6AB96BF86800F0B8F883
:104350000346002B06D0012387F82B30FB68202270
:104360005A651AE0FB689B68002B0AD100237B6129
:10437000FB681B68DB687B61FB681B689B687B6173
:104380007B69FB685B6D002B03D0012387F82B3022
:1043900003E0FB68012283F85120FB68002283F8C8
:1043A000502097F82B3018463037BD4680BD0000AE
:1043B00080B588B000AFF860B9603B601346FB7110
:1043C000FDF7DCF90246BB6A9B1A3A681344FB61AD
:1043D000FDF7D4F9B861394B1B685B011B0DFA6915
:1043E00002FB03F37B6154E03B68B3F1FF3F50D025
:1043F000FDF7C4F90246BB69D31AFA699A4202D999
:10440000FB69002B3DD1FB681B685A68FB681B6881
:1044100022F0E0025A60FB685B68B3F5827F11D13D
:10442000FB689B68B3F5004F04D0FB689B68B3F54D
:10443000806F07D1FB681B681A68FB681B6822F055
:1044400040021A60FB689B6AB3F5005F0FD1FB68FE
:104450001B681A68FB681B6822F400521A60FB682C
:104460001B681A68FB681B6842F400521A60FB68FC
:10447000012283F85120FB68002283F85020032397
:1044800017E07B69002B01D10023FB617B69013BB5
:104490007B61FB681B689A68BB681340BA689A42E4
:1044A0000CBF01230023DBB21A46FB799A429BD151
:1044B000002318462037BD4680BD00BF0000002005
:1044C00080B586B002AFF860B9607A607B6800930F
:1044D000BB6800228021F868FFF76AFF0346002BC3
:1044E00007D0FB685B6D43F02002FB685A6503232D
:1044F00000E0002318461037BD4680BD80B582B06D
:1045000000AF78607B68002B01D1012342E07B681B
:1045100093F84130DBB2002B06D17B68002283F890
:1045200040207868FCF772FF7B68242283F84120E2
:104530007B681B68DA687B681B6822F40052DA60CB
:10454000786800F01DF97B681B681A697B681B6836
:1045500022F490421A617B681B685A697B681B6869
:1045600022F02A025A617B681B68DA687B681B6844
:1045700042F40052DA607B6800225A647B68202291
:1045800083F841207B68202283F842207B68002248
:104590005A63002318460837BD4680BD80B58AB0EF
:1045A00002AFF860B9603B601346FB8000237B617B
:1045B000FB6893F84130DBB2202B6DD1BB68002B38
:1045C00002D0FB88002B01D1012366E0FB680022AA
:1045D0005A64FB68212283F84120FDF7CFF8786107
:1045E000FB68FA889A84FB68FA88DA84FB689B681F
:1045F000B3F5805F08D1FB681B69002B04D1002351
:10460000FB61BB68BB6103E0BB68FB610023BB616E
:104610002AE03B6800937B6900228021F86800F063
:1046200040F80346002B01D0032336E0FB69002B42
:104630000BD1BB691B881A46FB681B68C2F30802D2
:104640005A60BB690233BB6107E0FB691A78FB68FB
:104650001B685A60FB690133FB61FB68DB8C9BB212
:10466000013B9AB2FB68DA84FB68DB8C9BB2002BBF
:10467000CFD13B6800937B6900224021F86800F0AD
:1046800010F80346002B01D0032306E0FB6820222C
:1046900083F84120002300E0022318462037BD465E
:1046A00080BD80B590B000AFF860B9603B60134644
:1046B000FB7150E0BB6CB3F1FF3F4CD0BB6C002BE7
:1046C00007D0FDF75BF802463B68D31ABA6C9A42F2
:1046D00041D2FB681B680C33BB62BB6A53E8003FE6
:1046E0007B627B6A23F4D073FB63FB681B680C332B
:1046F000FA6B7A633B63396B7A6B41E80023FB62A8
:10470000FB6A002BE5D1FB681B6814337B617B6976
:1047100053E8003F3B613B6923F00103BB63FB6847
:104720001B681433BA6B3A62FB61F9693A6A41E873
:104730000023BB61BB69002BE5D1FB68202283F815
:104740004120FB68202283F84220FB68002283F886
:10475000402003230FE0FB681B681A68BB68134006
:10476000BA689A420CBF01230023DBB21A46FB79D8
:104770009A429FD0002318464037BD4680BD0000B6
:1047800080B584B000AF78607B681B681B6923F438
:1047900040517B68DA687B681B680A431A617B6852
:1047A0009A687B681B691A437B685B691343BB602B
:1047B0007B681B68DB6823F4B05323F00C037A6832
:1047C0001268B9680B43D3607B681B685B6923F48C
:1047D00040717B689A697B681B680A435A617B68F1
:1047E0001B682C4A934203D1FEF78CFAF86002E072
:1047F000FEF774FAF860FA6813469B0013449A00B7
:104800001A447B685B689B00B2FBF3F3224AA2FB6D
:1048100003235B091901FA6813469B0013449A00AD
:104820001A447B685B689B00B2FBF3F21A4BA3FB54
:1048300002035B09642000FB03F3D31A1B0132332C
:10484000154AA2FB03235B0903F0F0031944FA683D
:1048500013469B0013449A001A447B685B689B00D4
:10486000B2FBF3F20C4BA3FB02035B09642000FBD9
:1048700003F3D31A1B013233074AA2FB03235B095C
:1048800003F00F027B681B680A449A6000BF103770
:10489000BD4680BD003801401F85EB5180B500AF9B
:1048A0000449054803F0C2FB03461A46034B1A703D
:1048B00000BF80BD680400200C00002064040020BC
:1048C00080B400AF00231846BD4680BC704780B559
:1048D00082B000AF0346FB71FB79184600F0D2F9B5
:1048E000034618460837BD4680BD80B582B000AF8C
:1048F0000346FB71FB79184600F0B0FA03461846F0
:104900000837BD4680BD80B584B000AFB9607A601D
:104910003B600346FB73F87B3B687A68B96800F03C
:10492000B1FA034618461037BD4680BD80B584B045
:1049300000AFB9607A603B600346FB73F87B3B686D
:104940007A68B96800F004FB034618461037BD4684
:1049500080BD80B582B000AF03463A60FB710B4664
:10496000BB71B979FB793A68184600F06DFB0346D4
:1049700018460837BD4680BD80B582B000AF78606C
:10498000FCF7FCFE0346044A1360044A7B6813608C
:1049900000BF0837BD4680BD7004002074040020AD
:1049A00080B500AFFCF7EAFE0246064B1B68D21A40
:1049B000054B1B689A4234BF01230023DBB2184623
:1049C00080BD00BF700400207404002080B586B054
:1049D00002AF0346FB7107F10F02F91D322300936A
:1049E00001230448FFF733FBFB7B18461037BD4615
:1049F00080BD00BF7C02002090B585B000AF78601C
:104A000039600023FB600AE07A68FB68D418FF2055
:104A1000FFF7DCFF03462370FB680133FB60FA6895
:104A20003B689A42F0D300BF00BF1437BD4690BD2B
:104A300080B582B000AF786039603B689AB24FF0C1
:104A4000FF3379680348FFF7BFF900BF0837BD4659
:104A500080BD00BF7C02002080B586B000AF7860CA
:104A6000FCF78CFE78617B683B61FF20FFF7AEFFAF
:104A70000346FB73FB7BFF2B07D0FCF77FFE024650
:104A80007B69D31A3A699A42EFD8FB7BFF2B0CBFA4
:104A900001230023DBB218461837BD4680BD000055
:104AA00080B500AF012201210348FDF729FDFF2059
:104AB000FFF78CFF00BF80BD000C014080B500AF48
:104AC000002201210948FDF71BFDFF20FFF77EFFB3
:104AD0004FF4FA70FFF7C0FF0346002B01D001230B
:104AE00002E0FFF7DDFF0023184680BD000C014007
:104AF00080B584B000AF78603960C820FFF73CFF14
:104B0000FF20FFF763FF0346FB73FB7BFF2B04D102
:104B1000FFF746FF0346002BF2D1FB7BFE2B01D0B3
:104B200000230AE039687868FFF766FFFF20FFF787
:104B30004DFFFF20FFF74AFF012318461037BD46FF
:104B400080BD80B584B000AF78600B46FB704FF439
:104B5000FA70FFF781FF0346002B01D100231EE00E
:104B6000FB781846FFF732FFFB78FD2B16D04FF489
:104B700000717868FFF75CFFFF20FFF727FFFF2039
:104B8000FFF724FFFF20FFF721FF0346FB73FB7BAA
:104B900003F01F03052B01D0002300E0012318467A
:104BA0001037BD4680BD80B584B000AF0346396084
:104BB000FB7197F90730002B0EDAFB7903F07F03C6
:104BC000FB7100213720FFF7EEFF0346BB73BB7B71
:104BD000012B01D9BB7B51E0FB790C2B08D0FFF7EF
:104BE0005FFFFFF76BFF0346002B01D1FF2345E07A
:104BF000FB7943F04003DBB21846FFF7E7FE3B6862
:104C00001B0EDBB21846FFF7E1FE3B681B0CDBB264
:104C10001846FFF7DBFE3B681B0ADBB21846FFF7BE
:104C2000D5FE3B68DBB21846FFF7D0FE0123FB73CD
:104C3000FB79002B01D19523FB73FB79082B01D164
:104C40008723FB73FB7B1846FFF7C0FEFB790C2B19
:104C500002D1FF20FFF7BAFE0A23FB73FF20FFF704
:104C6000B5FE0346BB7397F90E30002B05DAFB7BCC
:104C7000013BFB73FB7B002BF0D1BB7B184610374D
:104C8000BD4680BD90B585B000AF0346FB71FB7992
:104C9000002B01D00123D6E06D4B1B78DBB203F073
:104CA0000203002B03D06A4B1B78DBB2CBE0694BCD
:104CB0001B681B6823F03802664B1B6842F0300209
:104CC0001A600A23FB7305E0FF20FFF77FFEFB7BE2
:104CD000013BFB73FB7B002BF6D100237B73002190
:104CE0000020FFF760FF0346012B40F08B804FF45C
:104CF0007A70FFF741FE4FF4D5710820FFF753FF9C
:104D00000346012B51D10023FB730DE0FC7BFF20F8
:104D1000FFF75CFE03461A4604F110033B4403F818
:104D2000082CFB7B0133FB73FB7B032BEED9BB7A97
:104D3000012B67D1FB7AAA2B64D100BFFFF730FEAD
:104D40000346002B07D04FF08041A920FFF72BFF2F
:104D50000346002BF2D1FFF723FE0346002B51D070
:104D600000213A20FFF71FFF0346002B4AD1002302
:104D7000FB730DE0FC7BFF20FFF728FE03461A467D
:104D800004F110033B4403F8082CFB7B0133FB7355
:104D9000FB7B032BEED93B7A03F04003002B01D0C1
:104DA0000C2300E004237B732CE00021A920FFF7F3
:104DB000FAFE0346012B04D802237B73A923BB739D
:104DC00003E001237B730123BB7300BFFFF7E8FD02
:104DD0000346002B07D0BB7B00211846FFF7E3FEFC
:104DE0000346002BF2D1FFF7DBFD0346002B07D073
:104DF0004FF400711020FFF7D6FE0346002B01D0C0
:104E000000237B73144A7B7B1370FFF749FE7B7B87
:104E1000002B12D00F4B1B681B6823F038020D4B80
:104E20001B6842F010021A60094B1B78DBB223F0BA
:104E30000103DAB2064B1A7002E0054B01221A7028
:104E4000034B1B78DBB218461437BD4690BD00BF3C
:104E5000200000207C0200206C04002080B483B07D
:104E600000AF0346FB71FB79002B01D0012302E068
:104E7000034B1B78DBB218460C37BD4680BC70472D
:104E80002000002080B584B000AFB9607A603B603C
:104E90000346FB73FB7B002B02D13B68002B01D147
:104EA00004234DE0284B1B78DBB203F00103002BF9
:104EB00001D0032344E0254B1B7803F00803002BAB
:104EC00002D17B685B027B603B68012B11D1796862
:104ED0001120FFF768FE0346002B29D14FF4007123
:104EE000B868FFF705FE0346002B21D000233B6086
:104EF0001EE079681220FFF756FE0346002B17D1FB
:104F00004FF40071B868FFF7F3FD0346002B0AD099
:104F1000BB6803F50073BB603B68013B3B603B68CB
:104F2000002BEDD100E000BF00210C20FFF73BFE7D
:104F3000FFF7B6FD3B68002B14BF01230023DBB253
:104F400018461037BD4680BD200000206C040020AC
:104F500080B584B000AFB9607A603B600346FB73F4
:104F6000FB7B002B02D13B68002B01D1042363E0C3
:104F7000334B1B78DBB203F00103002B01D003237A
:104F80005AE02F4B1B78DBB203F00403002B01D057
:104F9000022351E02B4B1B7803F00803002B02D1B6
:104FA0007B685B027B603B68012B10D1796818201D
:104FB000FFF7F9FD0346002B36D1FE21B868FFF755
:104FC000C0FD0346002B2FD000233B602CE01D4B7F
:104FD0001B7803F00603002B03D039689720FFF7F6
:104FE000E2FD79681920FFF7DEFD0346002B1BD197
:104FF000FC21B868FFF7A5FD0346002B0AD0BB686B
:1050000003F50073BB603B68013B3B603B68002BD2
:10501000EED100E000BFFD210020FFF792FD034626
:10502000002B01D101233B60FFF73AFD3B68002BC9
:1050300014BF01230023DBB218461037BD4680BDE4
:10504000200000206C04002080B58CB000AF034627
:105050003A60FB710B46BB71FB79002B01D0042336
:105060005AE1AF4B1B78DBB203F00103002B01D0F8
:10507000032351E1012387F82F30BB79042B00F281
:10508000368101A252F823F09D500008B15000086B
:10509000EF5200085D51000853520008FFF70EFD63
:1050A0000346002B00F02781002387F82F3022E1F0
:1050B00000210920FFF777FD0346002B40F01D81FA
:1050C00007F10C0310211846FFF712FD0346002BD1
:1050D00000F013813B7B9B09DBB2012B11D17B7D5F
:1050E0001A463B7D1B0213441A46FB7C1B0403F447
:1050F0007C1313440133FB61FB699A023B681A601D
:1051000028E07B7C03F00F03DAB2BB7DDB09DBB266
:105110001344DAB27B7D5B00DBB203F00603DBB243
:105120001344DBB2023387F82E303B7D9B09DBB2A0
:105130001A46FB7C9B001A44BB7C9B0203F4406331
:1051400013440133FB6197F82E30093BFA699A400A
:105150003B681A60002387F82F30CEE0714B1B7834
:1051600003F00403002B31D000218D20FFF71BFD3D
:105170000346002B40F0C380FF20FFF727FC07F118
:105180000C0310211846FFF7B3FC0346002B00F078
:10519000B680302387F82E3007E0FF20FFF716FC9B
:1051A00097F82E30013B87F82E3097F82E30002BE1
:1051B000F3D1BB7D1B09DBB21A46102303FA02F2BE
:1051C0003B681A60002387F82F3098E000210920FF
:1051D000FFF7E9FC0346002B40F0918007F10C0338
:1051E00010211846FFF784FC0346002B00F087804F
:1051F0004C4B1B7803F00203002B12D0BB7D5B00ED
:1052000003F07E03FA7DD209D2B213445A1C7B7E8E
:105210009B09DBB2013B02FA03F31A463B681A60B2
:1052200013E0BB7D9B109BB203F01F030133FA7D9B
:10523000D20002F01802F97D4909C9B20A440132CC
:1052400002FB03F31A463B681A60002387F82F30ED
:1052500055E0344B1B7803F00603002B51D007F1C7
:105260000C02FB790B211846FFF7EEFE0346002BDC
:1052700049D13B7B9B09DBB2002B04D1BB7D03F002
:105280004003002B41D03B683B623B6A1B68BB621A
:105290003B6A5B687B62234B1B7803F00803002B9F
:1052A00005D1BB6A5B02BB627B6A5B027B62B96A47
:1052B0002020FFF778FC0346002B28D1796A2120B3
:1052C000FFF771FC0346002B21D100212620FFF7B8
:1052D0006AFC0346002B1AD147F23050FFF7BCFBA3
:1052E0000346002B13D0002387F82F300FE0042350
:1052F00087F82F300CE000BF0AE000BF08E000BFD5
:1053000006E000BF04E000BF02E000BF00E000BF15
:10531000FFF7C6FB97F82F3018463037BD4680BDE3
:10532000200000206C04002080B584B000AF03464C
:10533000FB71FB79084A9B0013445B685B68FA7950
:1053400005490A44127A104698470346FB73FB7BD3
:1053500018461037BD4680BD9804002080B584B043
:1053600000AF0346FB710023FB73FB790D4AD35C4E
:10537000002B11D1FB790B4A0121D154FB79094A49
:105380009B0013445B681B68FA7906490A44127A49
:10539000104698470346FB73FB7B18461037BD4603
:1053A00080BD00BF9804002090B587B000AFB96001
:1053B0007A603B600346FB73FB7B0A4A9B00134405
:1053C0005B689C68FB7B074A1344187A3B687A68E1
:1053D000B968A0470346FB75FB7D18461C37BD46E0
:1053E00090BD00BF9804002090B587B000AFB960B1
:1053F0007A603B600346FB73FB7B0A4A9B001344C5
:105400005B68DC68FB7B074A1344187A3B687A6860
:10541000B968A0470346FB75FB7D18461C37BD469F
:1054200090BD00BF9804002080B584B000AF034653
:105430003A60FB710B46BB71FB79094A9B00134430
:105440005B681B69FA7906490A44107AB9793A68A7
:1054500098470346FB73FB7B18461037BD4680BD5B
:105460009804002080B487B000AFF860B9607A601B
:10547000FB687B61BB683B6107E03A69531C3B6199
:105480007B69591C796112781A707B685A1E7A60A0
:10549000002BF2D100BF00BF1C37BD4680BC704757
:1054A00080B487B000AFF860B9607A60FB687B6158
:1054B00005E07B695A1C7A61BA68D2B21A707B68BF
:1054C0005A1E7A60002BF4D100BF00BF1C37BD46C6
:1054D00080BC704780B489B000AFF860B9607A6072
:1054E000FB68FB61BB68BB6100237B6100BF7B681D
:1054F0005A1E7A60002B0DD0FB695A1CFA611B788A
:105500001946BB695A1CBA611B78CB1A7B617B694F
:10551000002BECD07B6918462437BD4680BC704711
:1055200080B483B000AF7860396002E07B680133FB
:105530007B607B681B78002B05D07B681B781A4644
:105540003B689342F2D17B681B7818460C37BD4606
:1055500080BC704780B485B000AF786039600023AC
:10556000BB60BB68FB6038E02F49FA6813465B00FC
:1055700013449B000B441B68002B29D02A49FA686E
:1055800013465B0013449B000B441A687B68D3F8F6
:1055900000329A421ED12449FA6813465B00134434
:1055A0009B000B4404331A687B68D3F808329A4294
:1055B00010D11D49FA6813465B0013449B000B444D
:1055C00008331A887B68B3F806329A4202D107E0A2
:1055D0000123BB60FB680133FB60FB68012BC3D96F
:1055E000FB68022B09D1BB68002B02D13B68022B60
:1055F00001D1002313E0122311E03B68002B0BD1F3
:105600000949FA6813465B0013449B000B440A33B4
:105610001B88B3F5807F01D1102300E000231846DA
:105620001437BD4680BC70478004002080B483B02E
:1056300000AF00237B6002E07B6801337B607B6806
:10564000012B09D80A497A6813465B0013449B0072
:105650000B441B68002BEFD17B68022B14BF012386
:105660000023DBB218460C37BD4680BC704700BF34
:105670008004002080B485B000AF786039600023DA
:10568000FB602BE05549FA6813465B0013449B000E
:105690000B441A687B68D3F800329A421BD14F49F9
:1056A000FA6813465B0013449B000B4404331A68EA
:1056B0007B68D3F808329A420DD14849FA681346FC
:1056C0005B0013449B000B4408331A887B68B3F8D3
:1056D00006329A4206D0FB680133FB60FB68012B5F
:1056E000D0D900E000BFFB68022B45D10023FB604E
:1056F00002E0FB680133FB60FB68012B09D83749E6
:10570000FA6813465B0013449B000B441B68002B94
:10571000EFD1FB68022B01D100235AE07B68D3F85C
:1057200000122E48FA6813465B0013449B000344A2
:1057300019607B68D3F808122848FA6813465B00A2
:1057400013449B000344043319607B68B3F80602DA
:105750002249FA6813465B0013449B000B4408334C
:1057600002461A801D49FA6813465B0013449B00E9
:105770000B440A3300221A803B68002B0CD01749D7
:10578000FA6813465B0013449B000B440A331B88E2
:10579000002B01D000231CE03B68002B0BD10F49EC
:1057A000FA6813465B0013449B000B440A331B88C2
:1057B000013399B201E04FF480710848FA6813464A
:1057C0005B0013449B0003440A330A461A80FB68BB
:1057D000013318461437BD4680BC70478004002052
:1057E00080B485B000AF78607B68013B7B607B68EC
:1057F000012B2ED81B497A6813465B0013449B008B
:105800000B440A331B88FB81FB89B3F5807F01D1F0
:105810000023FB81FB89002B02D0FB89013BFB812C
:1058200010497A6813465B0013449B000B440A330B
:10583000FA891A80FB89002B08D10A497A68134635
:105840005B0013449B000B4400221A6000237B730F
:1058500001E002237B737B7B18461437BD4680BC76
:10586000704700BF8004002080B485B000AF78602E
:105870000023FB6016E01049FA6813465B001344EE
:105880009B000B441B687A689A4208D10A49FA685F
:1058900013465B0013449B000B4400221A60FB6814
:1058A0000133FB60FB68012BE5D900BF00BF143753
:1058B000BD4680BC704700BF8004002080B586B024
:1058C00000AF78600023FB737B6893F80432002BF1
:1058D00038D07B68D3F82C327B617B6893F8010267
:1058E000796801237A69FFF77FFD0346002B02D018
:1058F0000123FB7326E07B68002283F804227B6887
:10590000D3F820327A69D21A7B68D3F818329A42D7
:1059100018D27B6893F803323B6110E07B68D3F8C0
:1059200018327A6913447B617B6893F801027968C5
:1059300001237A69FFF758FD3B69013B3B613B69F5
:10594000012BEBD8FB7B18461837BD4680BD80B5D0
:1059500084B000AF786039600023FB737B68D3F8B4
:105960002C323A689A421BD07868FFF7A7FF0346AB
:10597000FB73FB7B002B13D17B6893F801027968E2
:1059800001233A68FFF710FD0346002B04D04FF0C7
:10599000FF333B600123FB737B683A68C3F82C221A
:1059A000FB7B18461037BD4680BD80B584B000AF84
:1059B00078607868FFF782FF0346FB73FB7B002B60
:1059C00040F09B807B6893F80032032B40F0888086
:1059D0007B6893F80532012B40F082807B684FF49E
:1059E000007200211846FFF75BFD7B68552283F8A3
:1059F000FE217B68AA2283F8FF217B6852221A705D
:105A00007B6852225A707B6861229A707B684122BF
:105A1000DA707B68722283F8E4217B68722283F853
:105A2000E5217B68412283F8E6217B68612283F8C7
:105A3000E7217B68D3F81032DAB27B6883F8E8217B
:105A40007B68D3F810329BB21B0A9BB2DAB27B6838
:105A500083F8E9217B68D3F810321B0CDAB27B683B
:105A600083F8EA217B68D3F810321B0EDAB27B6828
:105A700083F8EB217B68D3F80C32DAB27B6883F8C9
:105A8000EC217B68D3F80C329BB21B0A9BB2DAB2D2
:105A90007B6883F8ED217B68D3F80C321B0CDAB2FB
:105AA0007B6883F8EE217B68D3F80C321B0EDAB2E8
:105AB0007B6883F8EF217B68D3F81C325A1C7B6823
:105AC000C3F82C227B6893F8010279687B68D3F8CD
:105AD0002C220123FFF788FC7B68002283F8052233
